:020000040000FA
:020000000728CF
:040002000034003492
:080008000C1825200900393015
:100010009000831611309F00DB308500C0308B00CC
:1000200001308C0083120730990003309F000515C2
:1000300085122E20F030A100C830A2009F149F1816
:100040001F281E08A10031201E280C1021088F0037
:10005000A00B08002E202430850608000430A000E4
:1000600008003230A3000000000000000000000083
:1000700000000000A20B3328C830A200A30B3328D5
:02008000080076
:02400E00853FEC
:00000001FF
